:020000040800F2
:1000000000000220C9470008010800080308000892
:10001000050800080708000809080008000000009B
:10002000000000000000000000000000513F000838
:100030000B08000800000000F13F0008E33A000848
:10004000194800081948000819480008194800080C
:1000500019480008194800081948000819480008FC
:1000600019480008194800081948000819480008EC
:100070000D080008194800081D0800081948000864
:1000800019480008194800081948000819480008CC
:1000900019480008194800081948000819480008BC
:1000A000194800082D0800081948000819480008D8
:1000B000194800081948000819480008194800089C
:1000C000194800081948000819480008194800088C
:1000D0001948000819480008194800083D08000898
:1000E000194800081948000819480008194800086C
:1000F000194800081948000819480008194800085C
:10010000194800081948000819480008194800084B
:10011000194800081948000819480008194800083B
:10012000194800081948000819480008194800082B
:1001300019480008000000000000000019480008ED
:10014000194800081948000819480008194800080B
:1001500019480008194800081948000819480008FB
:1001600019480008194800081948000819480008EB
:100170001948000819480008194800080000000044
:100180000000000019480008000000000000000006
:10019000194800080000000000000000194800088D
:1001A00000000000000000000000000019480008E6
:1001B000194800081948000819480008194800089B
:0401C00019480008D2
:1001D00001F0FF01102A2BDB10F0070F08D010F8F8
:1001E000013B013A8B422DD010F0070F42B3F6D1FC
:1001F000F0B441EA012141EA014122F007047FF015
:1002000000070023F0E80256083C85EA010586EA6B
:10021000010685FA47F5A3FA87F586FA47F6A5FAA7
:1002200087F68EB9EED1F0BC01F0FF0102F00702B3
:1002300032B110F8013B013A83EA010313B1F8D15E
:100240000020704701387047002D06BF354603383F
:10025000073815F0010F07D1013015F4807F02BF78
:10026000013015F4C03F0130F0BC0138704700BFC9
:100270007BB972B90029BEBF00204FF0004106E0F3
:1002800008BF00281CBF6FF000414FF0FF3000F0A6
:1002900057B8ADF1080C6DE904CE002909DB002B3D
:1002A0001ADB0DF00DFFDDF804E0DDE9022304B0F8
:1002B0007047404261EB4101002B1BDB0DF000FF5A
:1002C000DDF804E0DDE9022304B0404261EB4101C6
:1002D000524263EB43037047524263EB43030DF01A
:1002E000EFFEDDF804E0DDE9022304B0404261EBFB
:1002F00041017047524263EB43030DF0E1FEDDF82C
:1003000004E0DDE9022304B0524263EB430370478B
:1003100053B94AB9002908BF00281CBF4FF0FF316C
:100320004FF0FF3000F00CB8ADF1080C6DE904CED1
:100330000DF0C6FEDDF804E0DDE9022304B07047ED
:10034000704700BF10F8012B11F8013B012A28BFAC
:100350009A42F7D0D01A7047034613F8012B002AAF
:10036000FBD1181A013870470348044B834202D06E
:10037000034B03B118477047100100201001002003
:10038000000000000548064B1B1AD90F01EBA30122
:10039000491002D0034B03B11847704710010020E9
:1003A000100100200000000010B5064C237843B96E
:1003B000FFF7DAFF044B13B10448AFF300800123C9
:1003C000237010BD100100200000000098EB000811
:1003D00008B5054B1BB105490548AFF30080BDE8E2
:1003E0000840FFF7CFBF00BF00000000140100204D
:1003F00098EB000808B50268034B9A4200D008BD8C
:1004000001F0DAFBFBE700BF0000014072B6FEE737
:1004100010B594B007AC34220021204604F0D4FA81
:100420000023029303930493059306930093234AB6
:10043000116C41F080511164126C02F080520092F4
:10044000009A01931E4B1A6842F440421A601B68DE
:1004500003F440430193019B012307934FF480333E
:10046000089302230D934FF480020E920F220F92F5
:10047000D8221092119312931393204600F06AFD34
:10048000A8B901F0D9FAA0B90F230293032303936B
:10049000002304934FF4A05305934FF48053069325
:1004A000052102A800F0CEFB28B914B010BDFFF75B
:1004B000ADFFFFF7ABFFFFF7A9FF00BF0038024019
:1004C0000070004008B501F05DFBFFF7A1FF00F0F0
:1004D0000BF800F0B7F800F0D7F803F00FFB00F0CE
:1004E000A1F803F01DFBFEE784B000220192104B3F
:1004F000196B41F080011963196B01F080010191C2
:1005000001990292196B41F004011963196B01F012
:1005100004010291029903921A6B42F002021A63DB
:100520001B6B03F002030393039B04B0704700BFEF
:100530000038024030B5A5B02C4B01932C4B0093F2
:100540002C4B2D4A2D49012005F01EFB1FAC2046E7
:1005500005F09AFA2A4B1F932A4B20932A4B21939A
:100560002A4B2293204605F09DFA38B302AC204670
:1005700005F0B6FA0DF12C0EA446BCE80F00AEE86B
:100580000F00DCF80030CEF8003010AD0BAB0022CD
:100590001146284605F0B6F909AC2B461C4A1D4900
:1005A000204605F0F9F905F075FF02461A4B214681
:1005B0001EA805F02DFA00231D930EE0A021174878
:1005C00004F0F0F9D2E7C121154804F0EBF91D9BC6
:1005D00001331D930A2003F019FB00221DA91EA858
:1005E00005F06CF90028EED1F1E700BF5147000893
:1005F0001747000809470008F14600082C31002081
:1006000089450008A9450008C945000809460008B1
:1006100008EF0008E4EB0008F0EB0008BCEB000872
:1006200004EC000808B5044A0021044803F094FAD9
:10063000034B186008BD00BF48F1000835050008ED
:100640006830002010B582B0002401940D4B1A6B65
:1006500042F400121A631B6B03F400130193019B15
:10066000224605210C2001F079FA0C2001F086FACF
:10067000224605210E2001F071FA0E2001F07EFACB
:1006800002B010BD0038024008B50A480A4B0360AA
:100690004FF4E133436000238360C36003610C22A5
:1006A00042618361C36101F08FFB00B908BDFFF7B0
:1006B000ADFEFBE72C310020004800402DE9F0475B
:1006C00088B000230393049305930693079302686D
:1006D000444B9A4202D008B0BDE8F087044600259A
:1006E000009503F5F8331A6C42F480221A641A6CF0
:1006F00002F480220092009A01951A6B42F00402E3
:100700001A631A6B02F004020192019A02951A6BA5
:1007100042F002021A631B6B03F002030293029B76
:10072000202303934FF0020ACDF810A04FF00309E5
:10073000CDF818904FF00708CDF81C8003AF39466C
:10074000294800F029FE4FF480660396CDF810A0EA
:100750000595CDF81890CDF81C803946234800F057
:100760001BFE2348234B03604FF00063436085600A
:10077000C5600661456185614FF48073C3614FF4C4
:1007800040330362456200F073FF28BB184BE363FC
:100790009C631948194B03604FF00063436040238A
:1007A00083600023C3604FF4806202614361836110
:1007B000C3614FF440320262436200F059FF70B9E6
:1007C0000D4BA3639C6300220521272001F0C6F98D
:1007D000272001F0D3F97EE7FFF718FED6E7FFF7F1
:1007E00015FEEDE70048004000080240000402400A
:1007F000CC300020286002406C300020586002405D
:10080000FEE7FEE7FEE7FEE7FEE7704708B50248B1
:1008100001F024F808BD00BFCC30002008B5024824
:1008200001F01CF808BD00BF6C30002008B502487C
:1008300000F0C2F808BD00BF7431002008B50248BE
:1008400001F05CFC08BD00BF2C31002000B583B076
:10085000002200920D4B596C41F480415964596C4F
:1008600001F48041009100990192196C41F080518E
:1008700019641B6C03F080530193019B0F216FF0EF
:10088000010001F06BF903B05DF804FB0038024091
:1008900030B589B00546002401941E4B5A6C42F0D5
:1008A00001025A645B6C03F001030193019B02A9EE
:1008B00003A800F09DFA00F08BFA4300164AA2FB51
:1008C00003239B0C013B1548154A026040F2E732B6
:1008D000C260436004618460846100F085F904466D
:1008E00010B1204609B030BD0C4800F01FF8044696
:1008F0000028F6D1192001F041F90F2D01D901246A
:10090000EFE700222946192001F028F9054B1D6068
:10091000E7E700BF0038024083DE1B43743100204C
:1009200000000140040000207047000090F83D30B6
:10093000012B37D1022380F83D300268D36843F0A1
:100940000103D3600368194A934220D0B3F1804F6A
:100950001DD0A2F57C42934219D002F580629342E9
:1009600015D002F58062934211D002F5784293428D
:100970000DD002F57052934209D0A2F59432934201
:1009800005D01A6842F001021A60002070479A6888
:1009900002F00702062A07D01A6842F001021A6024
:1009A0000020704701207047002070470000014080
:1009B000704770477047704770B504460368DE683B
:1009C0001D6915F0020F10D016F0020F0DD06FF058
:1009D00002021A610123037703689B6913F0030F76
:1009E0005ED0FFF7E6FF0023237715F0040F12D047
:1009F00016F0040F0FD023686FF004021A6102236F
:100A0000237723689B6913F4407F4FD02046FFF77C
:100A1000D0FF0023237715F0080F12D016F0080F2F
:100A20000FD023686FF008021A610423237723682C
:100A3000DB6913F0030F40D02046FFF7BAFF002315
:100A4000237715F0100F12D016F0100F0FD0236877
:100A50006FF010021A61082323772368DB6913F40F
:100A6000407F31D02046FFF7A4FF0023237715F005
:100A7000010F02D016F0010F2DD115F0800F02D01A
:100A800016F0800F2FD115F0400F02D016F0400F56
:100A900031D115F0200F02D016F0200F33D170BDE8
:100AA000FFF786FF2046FFF785FF9CE72046FFF70C
:100AB0007FFF2046FFF77EFFABE72046FFF778FF7A
:100AC0002046FFF777FFBAE72046FFF771FF204681
:100AD000FFF770FFC9E723686FF001021A61204633
:100AE000FFF788FCC9E723686FF080021A6120468F
:100AF00000F0A7F8C7E723686FF040021A612046AC
:100B0000FFF759FFC5E723686FF020021A612046FE
:100B100000F096F8C3E700000368324A904212D012
:100B2000B0F1804F0FD0A2F57C4290420BD002F57D
:100B30008062904207D002F58062904203D002F5B5
:100B40007842904203D123F070034A681343254A48
:100B500090422AD0B0F1804F27D0A2F57C4290423B
:100B600023D002F5806290421FD002F5806290424D
:100B70001BD002F57842904217D002F57052904295
:100B800013D002F5806290420FD002F5806290424D
:100B90000BD0A2F59832904207D002F580629042C5
:100BA00003D002F58062904203D123F44073CA68F7
:100BB000134323F080034A6913438A68C2620A68B8
:100BC0008262084A904203D002F58062904201D1CD
:100BD0000A690263026842F0040202600122426173
:100BE000036070470000014040B310B5044690F820
:100BF0003D30F3B1022384F83D30214651F8040B17
:100C0000FFF78AFF012384F8463084F83E3084F8E9
:100C10003F3084F8403084F8413084F8423084F822
:100C2000433084F8443084F8453084F83D30002067
:100C300010BD80F83C30FFF777FEDBE701207047FE
:100C400070477047002800F09B8070B50D46044641
:100C50004F4B1B6803F00F038B4208D2CBB24C4AB8
:100C60001370136803F00F038B4240F08B802368EE
:100C700013F0020F17D013F0040F04D0454A936805
:100C800043F4E0539360236813F0080F04D0414A03
:100C9000936843F4604393603E4A936823F0F00303
:100CA000A1680B439360236813F0010F32D063688F
:100CB000012B21D09A1E012A25D9364A126812F03A
:100CC000020F61D033498A6822F0030213438B601C
:100CD00000F07EFF06462F4B9B6803F00C03626812
:100CE000B3EB820F16D000F073FF801B41F2883304
:100CF0009842F0D9032042E0264A126812F4003FDD
:100D0000E0D101203BE0234A126812F0007FD9D1E4
:100D1000012034E01E4B1B6803F00F03AB4207D9E0
:100D2000EAB21B4B1A701B6803F00F03AB422DD1C4
:100D3000236813F0040F06D0164A936823F4E05397
:100D4000E1680B439360236813F0080F07D0114A42
:100D5000936823F46043216943EAC103936000F080
:100D600065F80C4B9B68C3F303130B4AD35CD84064
:100D70000A4B18600A4B1868FFF78AFD002070BD07
:100D8000012070470120FAE70120F8E70120F6E78B
:100D9000003C0240003802407CF1000808000020BE
:100DA00004000020014B1868704700BF08000020B5
:100DB00008B5FFF7F7FF044B9B68C3F38223034A90
:100DC000D35CD84008BD00BF0038024074F1000871
:100DD00008B5FFF7E7FF044B9B68C3F34233034AB0
:100DE000D35CD84008BD00BF0038024074F1000851
:100DF0000F2303600B4B9A6802F0030242609A686B
:100E000002F0F00282609A6802F4E052C2609B68CD
:100E1000DB0803F4E0530361034B1B6803F00F038B
:100E20000B60704700380240003C024008B5464B5A
:100E30009B6803F00C03082B05D00C2B43D0042B2C
:100E40007FD1424819E0404B5A6802F03F025B688C
:100E500013F4800F12D03C4B5968C1F388113B4802
:100E60000023A1FB0001FFF753FA374B5B68C3F384
:100E7000014301335B00B0FBF3F008BD324B58680F
:100E8000C0F388104FEA401CBCEB000C6EEB0E0E5A
:100E90004FEA8E1343EA9C634FEA8C11B1EB0C01CD
:100EA00063EB0E03DB0043EA5173C90011EB000C46
:100EB00043F10003990200234FEA8C2041EA9C5140
:100EC000FFF726FAD1E7204B5A6802F03F025B6831
:100ED00013F4800F10D01C4B5968C1F388111B48C4
:100EE0000023A1FB0001FFF713FA174B5B68C3F364
:100EF0000273B0FBF3F0C0E7134B5868C0F38810DF
:100F00004FEA401CBCEB000C6EEB0E0E4FEA8E134A
:100F100043EA9C634FEA8C11B1EB0C0163EB0E03C7
:100F2000DB0043EA5173C90011EB000C43F10003ED
:100F3000990200234FEA8C2041EA9C51FFF7E8F91F
:100F4000D3E7034899E700BF0038024040787D01AD
:100F50000024F400002800F0018270B582B004463D
:100F6000036813F0010F41D0994B9B6803F00C0309
:100F7000042B32D0964B9B6803F00C03082B27D030
:100F8000934B9B6803F00C030C2B59D06368B3F5AB
:100F9000803F5BD0B3F5A02F5ED08D4B1A6822F452
:100FA00080321A601A6822F480221A606368002B6B
:100FB0005CD000F00DFE0546854B1B6813F4003F26
:100FC00014D100F005FE401B6428F5D90320CCE1C4
:100FD0007F4B5B6813F4800FD2D07D4B1B6813F4FA
:100FE000003F03D06368002B00F0BA81236813F040
:100FF000020F60D0764B9B6813F00C0F4AD0744BF5
:101000009B6803F00C03082B3FD0714B9B6803F0E7
:101010000C030C2B69D0E368002B75D06D4B0122BB
:101020001A6000F0D5FD0546694B1B6813F0020FEE
:1010300061D100F0CDFD401B0228F5D9032094E1D9
:10104000634B5B6813F4800FA0D0C6E7604A136857
:1010500043F480331360A9E75D4B1A6842F48022A1
:101060001A601A6842F480321A609FE700F0B0FDFF
:101070000546574B1B6813F4003FB7D000F0A8FD9E
:10108000401B6428F5D903206FE1514B5B6813F4D2
:10109000800FBAD14E4B1B6813F0020F03D0E368E8
:1010A000012B40F05F814A4A136823F0F80321695D
:1010B00043EAC1031360236813F0080F49D0636942
:1010C000002B33D0434B0122C3F8802E00F080FD6B
:1010D00005463F4B5B6F13F0020F3AD100F078FDED
:1010E000401B0228F5D903203FE1394B5B6813F41C
:1010F000800F90D1CEE7364A136823F0F8032169B8
:1011000043EAC1031360D6E7324B00221A6000F0B5
:101110005FFD05462E4B1B6813F0020FCBD000F08D
:1011200057FD401B0228F5D903201EE1294B002260
:10113000C3F8802E00F04CFD0546254B5B6F13F085
:10114000020F06D000F044FD401B0228F5D9032011
:101150000BE1236813F0040F76D01D4B1B6C13F0CA
:10116000805F33D100230193194B1A6C42F08052F7
:101170001A641B6C03F080530193019B0125164BED
:101180001B6813F4807F29D0A368012B3AD0052B6C
:101190003ED00F4B1A6F22F001021A671A6F22F02D
:1011A00004021A67A368002B3CD000F011FD06462C
:1011B000074B1B6F13F0020F45D100F009FD801B98
:1011C00041F288339842F3D90320CEE00025D6E7D8
:1011D0000038024000004742007000406B4A13682C
:1011E00043F48073136000F0F3FC0646674B1B6802
:1011F00013F4807FC8D100F0EBFC801B0228F5D9E6
:101200000320B2E0624A136F43F001031367C9E79A
:101210005F4B1A6F42F004021A671A6F42F0010224
:101220001A67BFE700F0D4FC0646594B1B6F13F05A
:10123000020F08D000F0CCFC801B41F288339842AA
:10124000F3D9032091E0EDB9A369002B00F08C8065
:101250004F4A926802F00C02082A54D0022B17D091
:101260004C4B00221A6600F0B3FC0446484B1B6846
:1012700013F0007F45D000F0ABFC001B0228F5D92D
:10128000032072E0424A136C23F080531364DBE7BF
:10129000404B00221A6600F09BFC05463C4B1B6845
:1012A00013F0007F06D000F093FC401B0228F5D914
:1012B00003205AE0E369226A1343626A43EA821315
:1012C000A26A5208013A43EA0243E26A43EA02632D
:1012D000226B43EA02732E4A53602E4B01221A6698
:1012E00000F076FC04462A4B1B6813F0007F06D101
:1012F00000F06EFC001B0228F5D9032035E0002029
:1013000033E0002031E0012B31D0214B5B6803F446
:101310008001E26991422CD103F03F02216A8A42A6
:1013200029D1616A47F6C0721A40B2EB811F24D1FD
:1013300003F44031A26A5208013AB1EB024F1ED1C8
:1013400003F07062E16AB2EB016F1AD103F0E0437F
:10135000226BB3EB027F16D1002006E0012070471C
:10136000012002E0012000E0002002B070BD012059
:10137000FBE70120F9E70120F7E70120F5E701206D
:10138000F3E70120F1E70120EFE700BF0070004024
:10139000003802400000474200230F2B00F2E38098
:1013A00070B582B065E085684FEA430E032404FA05
:1013B0000EF425EA0405CC6804FA0EF42C4384608C
:1013C000446824EA02044A68C2F300129A402243A5
:1013D00042605CE0DC08083450F8242003F0070584
:1013E000AD004FF00F0E0EFA05FE22EA0E0E0A694E
:1013F000AA4042EA0E0240F824205CE0062200E007
:10140000002202FA0EF22A430234574D45F82420F6
:10141000564A94686FEA0C0224EA0C054E6816F4EA
:10142000801F01D04CEA0405504CA560E46802EA34
:1014300004054E6816F4001F01D04CEA04054B4C1D
:10144000E560646802EA04054E6816F4003F01D0C6
:101450004CEA0405454C6560246822404D6815F44B
:10146000803F01D04CEA0402404C226001330F2B34
:1014700077D801229A400C6804EA020C32EA04048C
:10148000F4D14C6804F00304013C012C8BD94A6868
:1014900002F00302032A09D0C4685D000322AA40B7
:1014A00024EA02048A68AA402243C2604A6802F021
:1014B0000302022A8ED004684FEA430E032202FA86
:1014C0000EF224EA02044A6802F0030202FA0EF263
:1014D000224302604A6812F4403FC7D000220192C2
:1014E000234A546C44F480445464526C02F48042A5
:1014F0000192019A9C08A51C1B4A52F8255003F042
:10150000030E4FEA8E0E0F2202FA0EF225EA0205B2
:10151000184A90423FF474AF02F58062904216D0B0
:1015200002F58062904214D002F58062904212D09F
:1015300002F58062904210D002F5806290420ED097
:1015400002F5806290423FF459AF072259E7012229
:1015500057E7022255E7032253E7042251E7052209
:101560004FE702B070BD704700380140003C0140B9
:10157000003802400000024030B405682C6824F4B2
:1015800080242C60046863608368402B05D0036866
:1015900099600368DA6030BC704703689A6003683A
:1015A000D960F8E710B40368D9B210390A4AA2FB2F
:1015B00001421209094CA25CC2655F2907D96FF389
:1015C000090304338365806D5DF8044B70476FF346
:1015D00009038365F7E700BFABAAAAAA6CF100086C
:1015E000836A826992B9012B0AD0022B02D00BB117
:1015F00000207047C36A13F0807F28D10020704715
:10160000C36AB3F1C07F24D000207047B2F5005FF9
:1016100009D0022B25D9032B25D1C36A13F0807F73
:1016200023D100207047032B03D8DFE803F0140414
:10163000140A00207047C36A13F0807F0DD1002088
:101640007047C36AB3F1C07F09D000207047012002
:10165000704701207047012070470120704701202A
:10166000704701207047002070470120704700003C
:1016700070B5044600F0ACFA002C5BD0054602239E
:1016800084F83530002384F834302268136823F05E
:101690000103136023681A6812F0010F0AD000F0EA
:1016A00097FA431B052BF5D920236365032084F8A3
:1016B000350070BD1A68204911406268A068024375
:1016C000E06802432069024360690243A069024363
:1016D000E0690243206A02430A43616A04291ED07A
:1016E0001A602668756925F00705636A1D43042B97
:1016F00007D1A36A1D43E36A1BB12046FFF770FFC1
:1017000090B975612046FFF74DFFE26D3F2393408E
:10171000836000206065012384F83530C9E7E16A01
:10172000206B01430A43DBE740236365012084F813
:101730003500BEE70120BCE73F8010F038B5044615
:10174000856D90F8340001282AD0012084F83400F7
:1017500094F83500012804D0002384F834300220A6
:1017600038BD022084F83500002060652046FFF770
:1017700003FFE26D3F239340AB602268136843F0A0
:1017800016031360236C23B12268136843F0080327
:1017900013602268136843F0010313600020DFE741
:1017A0000220DDE770B50446866D00F011FA94F86A
:1017B0003530022B06D080236365002384F8343053
:1017C000012070BD05462268136823F016031360DC
:1017D0002268536923F080035361236CE3B12268CC
:1017E000136823F0080313602268136823F00103D1
:1017F000136023681B6813F0010F11D000F0E8F9A3
:10180000431B052BF5D920236365032084F835009D
:10181000002384F83430D4E7A36C002BDFD1E3E756
:10182000E26D3F239340B360012384F835300020FC
:1018300084F83400C5E790F83530022B03D08023BC
:10184000436501207047052380F83530026813682E
:1018500023F001031360002070470000F0B583B04F
:10186000044600230193724B1D68724BA3FB0535A0
:10187000AD0A876D3E68C26D08239340334210D095
:1018800003681A6812F0040F0BD01A6822F00402E1
:101890001A60C26D08239340BB60436D43F001039F
:1018A0004365E26D01239340334209D022685269B7
:1018B00012F0800F04D0BB60636D43F002036365D8
:1018C000E26D04239340334209D02268126812F07B
:1018D000020F04D0BB60636D43F004036365E26DE7
:1018E00010239340334224D02268126812F0080F6C
:1018F0001FD0BB6023681A6812F4802F0DD01B68BC
:1019000013F4002F04D1236C9BB12046984710E0BC
:10191000A36C73B1204698470BE01A6812F4807FDD
:1019200003D11A6822F008021A60236C0BB120461A
:101930009847E26D20239340334254D022681268C6
:1019400012F0100F4FD0BB6094F83530052B0ED03D
:1019500023681A6812F4802F33D01B6813F4002F09
:101960002AD1636C002B3ED0204698473BE022688A
:10197000136823F0160313602268536923F0800371
:101980005361236CA3B12268136823F0080313602A
:10199000E26D3F239340BB60012384F83530002380
:1019A00084F83430236D002B3FD0204698473CE02C
:1019B000A36C002BE7D1EBE7E36BA3B1204698477C
:1019C00011E01A6812F4807F09D11A6822F010021F
:1019D0001A60012384F83530002384F83430E36B37
:1019E0000BB120469847636DFBB1636D13F0010F97
:1019F00017D0052384F835302268136823F00103DB
:101A00001360019B01330193AB4204D823681B6828
:101A100013F0010FF5D1012384F83530002384F849
:101A20003430E36C0BB12046984703B0F0BD00BFE3
:101A300008000020B5814E1B10B582B00023019331
:101A4000194B1A6C42F080521A641B6C03F08053DD
:101A50000193019B154B01221A6400F0B9F804466A
:101A6000134B5B6813F4803F08D100F0B1F8001B02
:101A7000B0F57A7FF4D9032002B010BD0B4B0122E0
:101A80005A6400F0A5F80446094B5B6813F4003F64
:101A900007D100F09DF8001BB0F57A7FF4D9032040
:101AA000EAE70020E8E700BF0038024000000E42ED
:101AB00000700040002807DB00F01F0240090123EE
:101AC0009340024A42F82030704700BF00E100E036
:101AD000002808DB0901C9B200F1604000F561404F
:101AE00080F80013704700F00F000901C9B2014BE4
:101AF0001954704714ED00E000B500F00700C0F184
:101B0000070CBCF1040F28BF4FF0040C031D062B7B
:101B10000FD9C31E4FF0FF3E0EFA0CF021EA000170
:101B200099400EFA03FE22EA0E0241EA02005DF835
:101B300004FB0023EEE70000074AD36823F4E063C8
:101B40001B041B0C000200F4E060034343F0BF637E
:101B500043F40033D360704700ED00E010B5044655
:101B6000054BD868C0F30220FFF7C6FF01462046A8
:101B7000FFF7AEFF10BD00BF00ED00E008B5FFF7B6
:101B800099FF08BD08B50B4B1A6842F400721A6041
:101B90001A6842F480621A601A6842F480721A600D
:101BA0000320FFF7C9FF0F20FEF772FEFEF74EFE7F
:101BB000002008BD003C0240034A1168034B1B781B
:101BC0000B441360704700BFBC31002000000020B0
:101BD000014B1868704700BFBC310020026802F159
:101BE0000C0353E8003F23F0C0030C3242E80031FD
:101BF0000029F3D1202380F841307047026802F1B8
:101C00000C0353E8003F23F490730C3242E8003198
:101C10000029F3D1026802F1140353E8003F23F0D6
:101C20000103143242E800310029F3D1036B012B88
:101C300005D0202380F842300023036370470268F8
:101C400002F10C0353E8003F23F010030C3242E88A
:101C500000310029F3D1ECE790F84130212B01D07D
:101C6000022070478368B3F5805F17D0036A5A1C5F
:101C700002621A7803685A60C38C9BB2013B9BB224
:101C8000C3844BB90268D36823F08003D360026831
:101C9000D36843F04003D360002070470369002BF2
:101CA000E4D1036A1B880268C3F308035360036A24
:101CB00002330362E0E7000010B5044602681369CE
:101CC00023F44053C1680B431361836802691A43CC
:101CD00043691A43C3691A430168CB6823F4164366
:101CE00023F00C031343CB600268536923F4407361
:101CF00081690B4353610368314A934206D002F570
:101D00008062934202D0FFF753F801E0FFF760F8DA
:101D1000E369B3F5004F29D00021031849411B188E
:101D200041F10001C90041EA5371DB0018186368F2
:101D30004FEA83024FEA937341F10001FEF7E8FA9C
:101D4000204AA2FB00314909642303FB11031B0154
:101D50003233A2FB03235B0903F0F00202EB011212
:101D600003F00F03216813448B6010BD0023021899
:101D700043EB0301121841F10001C90041EA52711D
:101D8000D200101841F10001626892185B41FEF721
:101D9000BFFA0C4AA2FB00314909642303FB11037B
:101DA000DB003233A2FB03235B095A0002F4F87212
:101DB00002EB011203F00703216813448B60D4E7A0
:101DC000001001401F85EB5160B310B5044690F838
:101DD000413013B3242384F841302268D36823F4BC
:101DE0000053D3602046FFF767FF2268136923F48E
:101DF000904313612268536923F02A0353612268D8
:101E0000D36843F40053D36000206064202384F837
:101E1000413084F84230606310BD80F84030FEF7F6
:101E20004DFCD7E70120704738B5134690F84120A4
:101E3000202A36D10446002935D00BB9012031E0E3
:101E400001628384C38400224264212084F841001B
:101E5000A06B164DC563A06B154D0564A06B154DA9
:101E6000C564A06B026522680432A06BFFF766FCB4
:101E700030B110236364202384F84130012011E045
:101E800023686FF040021A60226802F1140353E8DD
:101E9000003F43F08003143242E800310029F3D1BF
:101EA00000E0022038BD0120FCE700BF3B1F000816
:101EB000A31F0008B31F000810B5044603685B6940
:101EC00090F84120212A09D023685B6903F0400380
:101ED00094F84220222A19D0002010BD03F080037C
:101EE000002BF1D0226802F1140353E8003F23F0E5
:101EF0008003143242E800310029F3D1A06B08B10D
:101F0000FFF750FC2046FFF769FEDDE7002BE3D02A
:101F1000226802F1140353E8003F23F04003143217
:101F200042E800310029F3D1E06B08B1FFF73AFC39
:101F30002046FFF763FECFE7704708B50346806B86
:101F40001B681B6813F4807F1AD10023C3840268C6
:101F500002F1140353E8003F23F08003143242E8F7
:101F600000310029F3D1026802F10C0353E8003F6D
:101F700043F040030C3242E800310029F3D108BDA0
:101F8000FFF7DAFFFBE708B50168CA6822F04002F4
:101F9000CA60202280F84120FFF7CEFF002008BD54
:101FA000704708B5806BFFF7FBFF08BD70477047AF
:101FB000704710B5846B23685B6994F84120212A2F
:101FC0000FD023685B6903F0400394F84220222A73
:101FD00011D0636C43F0100363642046FFF7E8FF01
:101FE00010BD03F08003002BEBD00023E3842046D8
:101FF000FFF7F4FDE5E7002BEBD00023E385204657
:10200000FFF7FCFDE5E708B5806B0023C385FFF70C
:10201000CFFF08BD704790F84230222B69D183680A
:10202000B3F5805F4FD0826AB3F5805F04D0002B98
:1020300056D10369002B53D103685B681370836A20
:1020400001338362C38D9BB2013B9BB2C385002BDE
:1020500051D100B583B00268D36823F02003D36068
:102060000268D36823F48073D3600268536923F055
:1020700001035361202380F8423000234363036B44
:10208000012B33D100230363026802F10C0353E8F0
:10209000003F23F010030C3242E800310029F3D155
:1020A00003681A6812F0100F06D0002201921A6815
:1020B00001925B680193019B818DFFF7ABFF0020CC
:1020C00003B05DF804FB0269002AACD1826A0368A0
:1020D0005B68C3F308031380836A02338362B1E74A
:1020E00003685B6803F07F031370A8E7FFF75EFFE8
:1020F000E5E70220704700207047000010B582B06D
:10210000044602681368D068516913F00F0F09D1B3
:1021100013F0200F0CD010F0200F09D02046FFF74D
:102120007AFF16E011F0010115D110F4907F12D161
:10213000216B012979D013F0800F03D010F0800FAC
:1021400040F0218113F0400F03D010F0400F40F019
:102150001E8102B010BD13F0010F06D010F4807F75
:1021600003D0626C42F00102626413F0040F04D0E9
:1021700019B1626C42F00202626413F0020F04D0E3
:1021800019B1626C42F00402626413F0080F07D0C8
:1021900010F0200F00D119B1626C42F008026264A5
:1021A000626C002AD5D013F0200F02D010F0200F5F
:1021B00029D123685B6903F04003626C12F0080FB9
:1021C00000D163B32046FFF719FD23685B6913F064
:1021D000400F20D0226802F1140353E8003F23F09F
:1021E0004003143242E800310029F3D1E36B73B1AC
:1021F000694A1A65E06BFFF71EFB0028A9D0E06B67
:10220000036D9847A5E72046FFF705FFD1E7204675
:10221000FFF7CEFE9DE72046FFF7CAFE99E720466E
:10222000FFF7C6FE0023636493E713F0100F82D01C
:1022300010F0100F3FF47FAF002301931368019358
:1022400053680193019B536913F0400F5FD0E26B19
:1022500013685B689BB2002B4AD0A18D994247D985
:10226000E385D369B3F5807F37D0226802F10C0390
:1022700053E8003F23F480730C3242E80031002918
:10228000F3D1226802F1140353E8003F23F0010365
:10229000143242E800310029F3D1226802F114031C
:1022A00053E8003F23F04003143242E80031002994
:1022B000F3D1202384F8423000232363226802F103
:1022C0000C0353E8003F23F010030C3242E80031C6
:1022D0000029F3D1E06BFFF765FA02236363A18D58
:1022E000E38D9BB2C91A89B22046FFF793FE30E70F
:1022F000A18D99427FF42DAFD369B3F5807F7FF430
:1023000028AF022363632046FFF784FE21E7A18DF7
:10231000E38D9BB2C91A89B2E38D9BB2002B3FF4C7
:1023200018AF00293FF415AF226802F10C0353E8FF
:10233000003F23F490730C3242E800300028F3D1C0
:10234000226802F1140353E8003F23F00103143222
:1023500042E800300028F3D1202384F842300023E3
:102360002363226802F10C0353E8003F23F01003BB
:102370000C3242E800300028F3D102236363204688
:10238000FFF748FEE5E62046FFF766FCE1E620465B
:10239000FFF7F9FDDDE600BF0720000808B5806BF8
:1023A00001234363036B012B02D0FFF700FE08BD3E
:1023B000818D4908FFF72EFEF9E708B50346806BCB
:1023C0001B681B6813F4807F2BD10023C385026830
:1023D00002F10C0353E8003F23F480730C3242E80F
:1023E00000310029F3D1026802F1140353E8003FE1
:1023F00023F00103143242E800310029F3D10268CE
:1024000002F1140353E8003F23F04003143242E882
:1024100000310029F3D1202380F84230036B012BD7
:1024200007D000234363036B012B0FD0FFF7BEFDE2
:1024300008BD026802F10C0353E8003F23F01003CB
:102440000C3242E800310029F3D1EAE7818DFFF731
:10245000E1FDEDE730B583B0044613468162828525
:1024600000224264222084F84200E06B244DC563C0
:10247000E06B244D0564E06B234DC564E06B0265A1
:1024800020680A46011DE06BFFF758F900282FD19C
:102490000023019323681A6801925B680193019BF2
:1024A00023695BB1226802F10C0353E8003F43F457
:1024B00080730C3242E800310029F3D1226802F126
:1024C000140353E8003F43F00103143242E80031A3
:1024D0000029F3D1226802F1140353E8003F43F0CE
:1024E0004003143242E800310029F3D103B030BD7B
:1024F00010236364202384F842300120F6E700BFF4
:10250000BB2300089D230008B31F000808B590F8FE
:102510004230202B08D149B10AB9012008BD00235F
:102520000363FFF797FFF9E70220F7E70120F5E7DC
:10253000034AD2F8883043F47003C2F888307047F9
:1025400000ED00E000F1080343604FF0FF328260CD
:10255000C360036100230360704700230361704779
:1025600043684B609A688A605160996008610368AB
:1025700001330360704730B40D68B5F1FF3F11D0EF
:1025800000F108031C465B681A68AA42FAD963681E
:102590004B6099608C60616008610368013303607F
:1025A00030BC70470469F2E70369416882688A6059
:1025B000416851605A68824206D0002202611A685E
:1025C000013A1A601868704782685A60F5E710B5DA
:1025D000044601F0CFFCA26BE36B9A4204D00024C6
:1025E00001F0EAFC204610BD0124F9E710B50446CD
:1025F00001F0C0FCA36B23B9012401F0DDFC2046EF
:1026000010BD0024F9E770B504461546866B026CD0
:102610005AB903681BB100200136A66370BD8068FB
:1026200000F0EEFF0023A360F6E76DB9406802F00A
:1026300000FA6368226C13446360A268934219D362
:10264000236863602846E7E7C06802F0F2F9E368B0
:10265000226C51429B1AE3602268934202D2A36823
:102660000B44E360022D01D00020D5E726B1013EE6
:102670000020D1E72846CFE70020CDE70346026CD3
:102680006AB110B50846D9681144D9609C68A14266
:1026900001D31968D960D96802F0CBF910BD704731
:1026A00038B5054601F066FC95F8454064B201E096
:1026B000013C64B2002C0ADD6B6A43B105F12400D1
:1026C00000F0D6FE0028F3D000F084FFF0E7FF23EF
:1026D00085F8453001F070FC01F04CFC95F8444061
:1026E00064B201E0013C64B2002C0ADD2B6943B105
:1026F00005F1100000F0BCFE0028F3D000F06AFFE6
:10270000F0E7FF2385F8443001F056FC38BD38B5BA
:10271000E0B10D46044601F02DFC2368E26B216C0C
:1027200001FB0230A0600020A0636360013A02FB5D
:102730000133E360FF2384F8443084F84530FDB969
:10274000236963B901F038FC012038BD4FF0500314
:1027500083F31188BFF36F8FBFF34F8FFEE704F150
:10276000100000F085FE0028ECD04FF0E0234FF081
:102770008052C3F8042DBFF34F8FBFF36F8FE1E793
:1027800004F11000FFF7DEFE04F12400FFF7DAFE8B
:10279000D8E738B51D46049C0B4649B92460E06370
:1027A000236401212046FFF7B2FF84F84C5038BD66
:1027B0002260F4E740B94FF0500383F31188BFF370
:1027C0006F8FBFF34F8FFEE710B584B01C46844671
:1027D00053B192B189B94FF0500383F31188BFF31D
:1027E0006F8FBFF34F8FFEE74FF0500383F31188D5
:1027F000BFF36F8FBFF34F8FFEE76AB15023039390
:10280000039B502B13D04FF0500383F31188BFF379
:102810006F8FBFF34F8FFEE70029EFD04FF05003CB
:1028200083F31188BFF36F8FBFF34F8FFEE7039BD6
:10283000012384F8463000949DF818306046FFF775
:10284000A8FF204604B010BDF0B585B0019288B154
:102850000F461D460446B1B1022D20D1E36B012B7A
:102860001DD04FF0500383F31188BFF36F8FBFF378
:102870004F8FFEE74FF0500383F31188BFF36F8F44
:10288000BFF34F8FFEE7036C002BE5D04FF05003F2
:1028900083F31188BFF36F8FBFF34F8FFEE700F014
:1028A0009FFE064658B9019B002B48D04FF05003BD
:1028B00083F31188BFF36F8FBFF34F8FFEE70026BE
:1028C0003DE02A4639462046FFF79DFE636A7BB904
:1028D00048B14FF0E0234FF08052C3F8042DBFF30E
:1028E0004F8FBFF36F8F01F067FB012005B0F0BD84
:1028F00004F1240000F0BCFD0028F4D04FF0E023E8
:102900004FF08052C3F8042DBFF34F8FBFF36F8F8A
:10291000E9E701F051FB0020E8E702A800F00AFE19
:10292000012619E0002384F8443021E0002384F8D4
:10293000453023E02046FFF7B3FE00F077FC01F0BE
:1029400019FBA26BE36B9A42BBD3022DB9D0019B5A
:10295000002BDED0002EE0D001F02EFB00F0CCFBEF
:1029600001F008FB94F8442052B2B2F1FF3FD9D0F5
:1029700094F8452052B2B2F1FF3FD7D001F01CFBD2
:1029800001A902A800F0E2FDD8B92046FFF71FFE1A
:102990000028CFD0019904F1100000F035FD204649
:1029A000FFF77EFE00F042FC0028C8D14FF0E02384
:1029B0004FF08052C3F8042DBFF34F8FBFF36F8FDA
:1029C000BDE72046FFF76CFE00F030FC00208DE7ED
:1029D0002DE9F84390B10F4616461C460546B1B1A5
:1029E000022C20D1EB6B012B1DD04FF0500383F351
:1029F0001188BFF36F8FBFF34F8FFEE74FF0500387
:102A000083F31188BFF36F8FBFF34F8FFEE7036C23
:102A1000002BE5D04FF0500383F31188BFF36F8F85
:102A2000BFF34F8FFEE701F0CBFBEFF311884FF0C0
:102A3000500383F31188BFF36F8FBFF34F8FAA6BDF
:102A4000EB6B9A4206D3022C04D0002088F3118845
:102A5000BDE8F88395F845904FFA89F9AB6B2246AB
:102A600039462846FFF7CFFDB9F1FF3F06D009F1FF
:102A700001035BB285F845300120E7E76B6A0BB9CB
:102A80000120E3E705F1240000F0F2FC18B126B1C3
:102A900001203060DAE70120D8E70120D6E7F0B561
:102AA00085B0019290B10F460446C1B100F098FD87
:102AB000064600BB019B002B5ED04FF0500383F312
:102AC0001188BFF36F8FBFF34F8FFEE74FF05003B6
:102AD00083F31188BFF36F8FBFF34F8FFEE7036C53
:102AE000002BE3D04FF0500383F31188BFF36F8FB7
:102AF000BFF34F8FFEE700263EE039462046FFF742
:102B0000BDFD013DA563236923B901F055FA0120FC
:102B100005B0F0BD04F1100000F0AAFC0028F4D0CC
:102B20004FF0E0234FF08052C3F8042DBFF34F8FD6
:102B3000BFF36F8FE9E701F03FFA0020E8E702A852
:102B400000F0F8FC012621E0002384F8443029E05D
:102B5000002384F845302BE02046FFF7A1FD00F06C
:102B600065FB09E02046FFF79BFD00F05FFB204678
:102B7000FFF73CFD00283FD101F0FCF9A56B002DCB
:102B8000BBD1019B002BD6D0002ED8D001F014FA77
:102B900000F0B2FA01F0EEF994F844305BB2B3F110
:102BA000FF3FD1D094F845305BB2B3F1FF3FCFD0B7
:102BB00001F002FA01A902A800F0C8FC0028D1D156
:102BC0002046FFF713FD0028C6D0019904F1240028
:102BD00000F01AFC2046FFF763FD00F027FB0028F9
:102BE000CAD14FF0E0234FF08052C3F8042DBFF359
:102BF0004F8FBFF36F8FBFE7002089E70023072BBC
:102C00000CD8074A52F833200AB10133F7E7044AD7
:102C100042F8331002EBC30250607047704700BFA8
:102C2000C031002070B504460D46164601F0A2F9E9
:102C300094F844305BB2B3F1FF3F0DD094F84530C7
:102C40005BB2B3F1FF3F0BD001F0B6F9A36B5BB100
:102C50002046FFF725FD70BD002384F84430EDE7E2
:102C6000002384F84530EFE73246294604F124007A
:102C700000F0E2FBECE70000084B1B681B6823B97F
:102C8000074B4FF0FF321A607047044B1B68DB683C
:102C9000DB685A68024B1A60704700BF7032002030
:102CA000083200202DE9F04780460D461746994628
:102CB000089EDDF824A00A9C9200A521206B01F05B
:102CC00083FE236B07F18042013A03EB820727F072
:102CD0000707A5B34FF0000CBCF10F0F09D815F88A
:102CE0000C3004EB0C0282F8343013B10CF1010CFF
:102CF000F2E7002384F84330372E00D93726E66206
:102D0000E66400252565201DFFF727FC04F1180067
:102D1000FFF723FC2461C6F13806A661646265658D
:102D200084F858504A464146384601F0F7F820608A
:102D3000BAF1000F01D0CAF80040BDE8F0870023C7
:102D400084F83430D8E7000038B5002407E004EBFD
:102D5000840293000E481844FFF7F4FB0134372C2B
:102D6000F5D90C4D2846FFF7EDFB0B4C2046FFF73D
:102D7000E9FB0A48FFF7E6FB0948FFF7E3FB0948D0
:102D8000FFF7E0FB084B1D60084B1C6038BD00BF1F
:102D90009C320020883200207432002058320020FB
:102DA000443200202C320020703200206C3200208F
:102DB00010B5044601F0DEF8224A136801331360AF
:102DC000214B1B685BB1214B1B686BB91E4B1B6809
:102DD000DA6AE36A9A4207D81B4B1C6004E01A4B7C
:102DE0001C601368012B29D0194A13680133136042
:102DF0006364E06A174B1B68984201D9154B186051
:102E000000EB8000211D144B03EB8000FFF7A8FBB3
:102E100001F0D2F80D4B1B687BB10B4B1B68DA6AD3
:102E2000E36A9A4209D24FF0E0234FF08052C3F890
:102E3000042DBFF34F8FBFF36F8F10BDFFF784FFDB
:102E4000D2E700BF28320020FC3600201C320020D0
:102E50000C320020203200209C32002010B50446A5
:102E600090F8593063B1012B11D0022B0ED04FF0E6
:102E7000500383F31188BFF36F8FBFF34F8FFEE7CB
:102E8000006B00F0CFFF204600F0CCFF10BD00F03B
:102E9000C9FFFBE70F4B1B68D3B110B501F06AF80F
:102EA0000D4BDB68DC68201DFFF77EFB0B4A1368C7
:102EB000013B1360074A1368013B136001F07CF883
:102EC0002046FFF7CBFF034B1B68002BE6D110BD5C
:102ED000704700BF403200204432002028320020DA
:102EE00008B5FFF7D7FF074B1B68012BF9D94FF047
:102EF000E0234FF08052C3F8042DBFF34F8FBFF390
:102F00006F8FEEE79C32002070B504460D46174BDC
:102F10001E68174B18680430FFF746FBB4F1FF3FFB
:102F20000DD03444124B1B685C60A64210D9114B83
:102F300018680F4B19680431FFF71DFB70BD002D99
:102F4000EFD00B4B196804310B48FFF709FBF5E78D
:102F50000A4B1868064B19680431FFF70CFB084B45
:102F60001B68A342EAD9064B1C60E7E72432002025
:102F7000FC3600206C3200202C3200207032002001
:102F80000832002030B587B00B9C7CB10C9DB5B1E8
:102F90005C250495049D5C2D1AD04FF0500383F3FB
:102FA0001188BFF36F8FBFF34F8FFEE74FF05003D1
:102FB00083F31188BFF36F8FBFF34F8FFEE74FF09E
:102FC000500383F31188BFF36F8FBFF34F8FFEE77A
:102FD000049D0C9D2C63022485F859400024039421
:102FE000029505AC01940A9C0094FFF75BFE0C98D7
:102FF000FFF7DEFE059807B030BD2DE9F04385B040
:103000000746884614461E46900000F089FE08B325
:1030100081465C2000F084FE0546A8B1C0F83090DF
:10302000002380F85930039302900D9B01930C9B71
:1030300000933346224641463846FFF733FE284682
:10304000FFF7B6FE012007E0484600F0EBFE4FF028
:10305000FF3001E04FF0FF3005B0BDE8F083000025
:1030600010B588B000240594069407AA06A905A8FF
:1030700000F0DAFD059B0293069B01930094234622
:10308000079A17491748FFF77DFF174B1860C0B123
:1030900000F06AFB012815D14FF0500383F311882B
:1030A000BFF36F8FBFF34F8F104B4FF0FF321A609B
:1030B0000F4B01221A600F4B00221A6000F0F4FF40
:1030C00003E00020B0F1FF3F01D008B010BD4FF089
:1030D000500383F31188BFF36F8FBFF34F8FFEE769
:1030E0002CEC0008E12E00080432002008320020F9
:1030F0001C32002024320020024A1368013313607E
:10310000704700BF00320020014B1868704700BFB5
:1031100024320020F8B53A4B1B68002B69D1394B9B
:103120001D6801351D60C5B9374B1B681B6843B16D
:103130004FF0500383F31188BFF36F8FBFF34F8FAE
:10314000FEE7314A1168314B186810601960304A47
:10315000136801331360FFF78FFD2E4B1B68AB42E2
:103160003DD900272C4B1B68DB6A03EB83039A00D5
:103170002A4B9B58012B00D90127294B1B68002B98
:103180003CD001273AE001271F4B1B681B6843B363
:103190001D4B1B68DB68DC6863689D4226D3261DD7
:1031A0003046FFF701FAA36A1BB104F11800FFF7DC
:1031B000FBF9E36A1B4A1268934201D9194A13606A
:1031C00003EB83039A00314614481044FFF7C8F913
:1031D000E26A114B1B68DB6A9A42D4D2D4E700271B
:1031E000D2E70C4B4FF0FF321A60BBE7094A13607D
:1031F000B8E70D4A13680133136000273846F8BD5D
:103200000032002024320020703200206C32002076
:103210001032002008320020FC3600209C320020B2
:1032200014320020203200201832002038B5354BEF
:103230001B6843B94FF0500383F31188BFF36F8FBE
:10324000BFF34F8FFEE700F095FE2E4B1A68013A50
:103250001A601B68002B4FD12B4B1B680BB9002445
:103260004BE00024294B1B681BB3284BDB68DC6850
:1032700004F11800FFF798F9251D2846FFF794F987
:10328000E06A234B1B68984201D9214B186000EB80
:10329000800029461F4B03EB8000FFF761F9E26ACB
:1032A0001D4B1B68DB6A9A42DCD31C4B01221A605F
:1032B000D8E70CB1FFF7E0FC194B1C6884B9174B39
:1032C0001C68D4B14FF0E0234FF08052C3F8042DB6
:1032D000BFF34F8FBFF36F8F01240EE0013C07D087
:1032E000FFF718FF0028F9D00C4B01221A60F5E710
:1032F0000B4B00221A60E2E7002400F05DFE20463E
:1033000038BD00BF00320020283200205832002093
:10331000203200209C320020FC3600201432002095
:103320001832002010B5A8B10446104B1B6843B1F9
:103330004FF0500383F31188BFF36F8FBFF34F8FAC
:10334000FEE7FFF7D9FE00212046FFF7DDFDFFF77E
:103350006DFF48B94FF0E0234FF08052C3F8042DC1
:10336000BFF34F8FBFF36F8F10BD00BF003200203F
:10337000204B1B681BB1204B01221A6070471E4B6B
:1033800000221A601D4B1B6803EB83018A001C4955
:103390008A585AB90BB1013BF6E74FF0500383F35B
:1033A0001188BFF36F8FBFF34F8FFEE7084603EB23
:1033B00083018A00024451684968516003EB830C21
:1033C0004FEA8C020832024491420BD003EB830295
:1033D00091000B4A0A445268D1680A4A1160074AB0
:1033E00013607047486862469100054A0A4450607D
:1033F000ECE700BF00320020143200202032002011
:103400009C320020FC36002058B110B50C46094A09
:1034100011681831FFF7AFF801212046FFF774FD5E
:1034200010BD4FF0500383F31188BFF36F8FBFF3CC
:103430004F8FFEE7FC36002038B570B10D461446BC
:103440000A4A11681831FFF78BF80CB14FF0FF35BD
:1034500021462846FFF758FD38BD4FF0500383F34F
:103460001188BFF36F8FBFF34F8FFEE7FC3600204C
:1034700038B5C368DC6824B304F118052846FFF7A3
:1034800093F8184B1B682BBB251D2846FFF78CF8BB
:10349000E06A154B1B68984201D9134B186000EB8A
:1034A00080002946114B03EB8000FFF759F8E26AD0
:1034B0000F4B1B68DB6A9A4211D901200D4B186033
:1034C00038BD4FF0500383F31188BFF36F8FBFF304
:1034D0004F8FFEE729460848FFF742F8E7E700204C
:1034E000EEE700BF00320020203200209C32002096
:1034F000FC360020143200205832002060B110B594
:10350000044600F037FD094B1B682360084B1B681D
:10351000636000F051FD10BD4FF0500383F311883C
:10352000BFF36F8FBFF34F8FFEE700BF1032002055
:1035300024320020034B1B680360034B1B6843606D
:10354000704700BF1032002024320020E0B170B577
:103550000C46054609B300F00DFD1C4B19686B685D
:10356000C81A2268B2F1FF3F28D0DFF864C0DCF847
:1035700000C02E68664501D08B4224D9824215D8FE
:103580000023236001241AE04FF0500383F31188D5
:10359000BFF36F8FBFF34F8FFEE74FF0500383F3FE
:1035A0001188BFF36F8FBFF34F8FFEE75B1A134491
:1035B00023602846FFF7BEFF002400E0002400F04F
:1035C000FBFC204670BD0124F9E700BF2432002037
:1035D00010320020014B01221A6070471432002083
:1035E000054B1B6833B1054B1B680BB100207047BE
:1035F00002207047012070471C320020003200205A
:1036000000283BD038B504461E4B1B68834208D0C7
:103610004FF0500383F31188BFF36F8FBFF34F8FC9
:10362000FEE7036D43B94FF0500383F31188BFF3F6
:103630006F8FBFF34F8FFEE7013B0365C16AC26C1A
:1036400091421DD00BB1002038BD051D2846FEF764
:10365000ABFFE06CE062C0F13803A3610A4B1B686A
:10366000984201D9084B186000EB80002946074BAF
:1036700003EB8000FEF774FF0120E5E700207047B0
:103680000020E1E7FC360020203200209C320020A0
:10369000064B1A6813682BB90123036023B9D3685A
:1036A000186870470023F8E70020704700380020B2
:1036B00008B54160006191420CD8D21A83699A42E0
:1036C00001D3012008BD011D094B1868FEF753FF07
:1036D0000020F7E79A4201D2994206D2011D054B1C
:1036E0001868FEF748FF0020ECE70120EAE700BF7A
:1036F000FC3700200038002030B583B000F03AFCE1
:10370000114B1B681BB100F057FC03B030BD0F4DCF
:103710002846FEF717FF0E4C2046FEF713FF0D4B11
:103720001D600D4B1C60002300930C4B0C4A1021B4
:103730000A20FFF73FF8044B18600028E3D009493E
:10374000FFF75CFADFE700BFF837002018380020E9
:103750000438002000380020FC370020003700200B
:103760005037002034EC000810B588B0FFF7C4FFD4
:10377000124B1B68CBB100240594069407AA06A936
:1037800005A800F05DFA059B0293069B01930223B6
:1037900000932346079A0A490A48FFF7F3FB0A4BAE
:1037A000186010B1012008B010BD4FF0500383F332
:1037B0001188BFF36F8FBFF34F8FFEE7F8370020FC
:1037C0003CEC0008CD3A0008F4370020B8B19C4624
:1037D00003461848006858B300B585B000910192BF
:1037E000029305291CDCFFF7FBFE022810D0002302
:1037F0001A4669460F480068FFF726F815E04FF0B3
:10380000500383F31188BFF36F8FBFF34F8FFEE731
:103810000023069A694607480068FFF715F804E098
:10382000002362466946FFF7D3F805B05DF804FB54
:1038300000207047F837002070B582B01B4B1B6822
:103840001A6862B3DB681E68DC68251D2846FEF72F
:10385000ABFE236A2046984794F8283013F0040FF3
:10386000ECD0A36933449E4207D2636024612946A9
:103870000E4B1868FEF77FFEE0E7002100910B4633
:1038800032462046FFF7A2FF0028D7D14FF0500361
:1038900083F31188BFF36F8FBFF34F8FFEE7044AA6
:1038A000106802490860136002B070BD0038002043
:1038B000FC37002038B50546FFF726FC0446074BC9
:1038C0001B68834205D800232B60044B1C602046F4
:1038D00038BDFFF7B1FF01232B60F6E7F03700207A
:1038E00070B582B006460D4617490968C968CC68AC
:1038F000201DFEF759FE94F828C01CF0040F08D1D3
:103900002CF0010C84F828C0236A2046984702B0A6
:1039100070BDA16933462A4631442046FFF7C8FEF0
:103920000028F1D0002100910B4632462046FFF7D7
:103930004DFF0028E8D14FF0500383F31188BFF307
:103940006F8FBFF34F8FFEE70038002070B582B055
:1039500006460C46FFF7D0FB01A8FFF7ABFF019B23
:1039600033BB0546E4B9B04213D22246711B124B59
:103970001868FFF757F9FFF759FCD8B94FF0E02363
:103980004FF08052C3F8042DBFF34F8FBFF36F8FFA
:1039900010E0FFF74BFC29463046FFF7A1FF09E096
:1039A000064A126812680AB90124DEE71C46DCE701
:1039B000FFF73CFC02B070BDF8370020FC37002058
:1039C00010B588B002E0049B002B0FDA002204A996
:1039D0003D4B1868FFF763F8002872D0049B002B5A
:1039E000F1DA07990698059B9847ECE7069C63690E
:1039F00013B1201DFEF7D8FD03A8FFF75BFF0246B9
:103A0000049B092BE2D8DFE803F00505052F364EAD
:103A100005052F3694F8283043F0010384F8283048
:103A2000059BA16919442046FFF742FE0028CDD02E
:103A3000236A2046984794F8283013F0040FC5D025
:103A4000A269002100910B46059802442046FFF729
:103A5000BDFE0028BAD14FF0500383F31188BFF3A5
:103A60006F8FBFF34F8FFEE794F8283023F00103E8
:103A700084F82830AAE794F8283043F0010384F84A
:103A800028300599A16129B1034601442046FFF77A
:103A90000FFE9BE74FF0500383F31188BFF36F8F46
:103AA000BFF34F8FFEE794F8283013F0020F04D0D5
:103AB00023F0010384F8283088E7204600F0B2F9AB
:103AC00084E708B010BD00BFF837002000B583B010
:103AD00001A8FFF7DDFD0199FFF738FFFFF770FF41
:103AE000F6E708B54FF0E0231B69FFF779FD0128E1
:103AF00000D108BD00F0AEFAFBE70000EFF305834C
:103B00002BB9064B186828B901221A6070476FF06C
:103B1000050070474FF0FF30704700BFE43E0020C3
:103B2000EFF3058373B90A4B1B68012B0DD110B558
:103B30000024084BDC77064B02221A60FFF790FA4C
:103B4000204610BD6FF0050070474FF0FF30704702
:103B5000E43E002000ED00E0F0B587B000240594BD
:103B6000EFF3058404BBF8B1002A34D015689369DB
:103B70002BB11E46013B372B02D9002015E0182639
:103B8000536813F0010F3FD1546984B14FEA940C8C
:103B900093682BB1D7685B2F02D9176907B184B935
:103BA00043B14FF0FF330BB3059807B0F0BD4FF0B2
:103BB000800CEDE7D368A3B91369ABB14FF0FF33C5
:103BC000F1E70293019700960B4662462946FFF7FC
:103BD000D9F90590E8E71546002318264FF0800C28
:103BE000E1E74FF0FF33DEE70023DCE705AB0193AD
:103BF00000960B461FFA8CF22946FFF7FEF90128C2
:103C0000D2D000230593CFE70020CEE708B5EFF32D
:103C1000058333B908B9002008BDFFF783FB0020F6
:103C2000FAE76FF00500F7E7034B0360034B0B6007
:103C300080231360704700BF883E0020883C00202E
:103C4000034B0360034B0B604FF4807313607047AA
:103C50002C3C00202C380020124A12F0070F1ED0F6
:103C6000D11D21F00701C1F5705313440A460E48D7
:103C70000260002141601344083B23F007030B4816
:103C8000036059601960991A51601360084B1960FC
:103C9000084B1960084B4FF000421A6070474FF410
:103CA0007053E4E7083F0020003F0020FC3E002066
:103CB000F43E0020F83E0020E83E0020164B1A4655
:103CC0001B688342FBD3516802EB010C844509D089
:103CD000416800EB010C634509D00360904219D0A4
:103CE000106070474068014451601046F0E710B41E
:103CF0000A4C2468A3420BD05B68194441601368E6
:103D00001B680360904200D010605DF8044B704760
:103D10000460F7E7704700BF003F0020FC3E002032
:103D200038B50446FFF7E8F9384B1B68B3B1384B98
:103D30001B681C4250D1002C50D004F1080214F032
:103D4000070F02D022F007020832002A55D0314B6B
:103D50001B68934253D330490C6804E0FFF77CFFA3
:103D6000E5E721461C466368934202D22368002B94
:103D7000F7D1264B1B68A34243D00D680835236852
:103D80000B6063689B1A102B10D9A01810F0070F56
:103D900008D04FF0500383F31188BFF36F8FBFF348
:103DA0004F8FFEE743606260FFF788FF6268194942
:103DB0000B689B1A0B60194909688B4201D217499D
:103DC0000B60134B1B681343636000232360144A8A
:103DD00013680133136002E0002500E00025FFF7BF
:103DE00025FA15F0070F0ED04FF0500383F311881A
:103DF000BFF36F8FBFF34F8FFEE70025EFE700257E
:103E0000EDE70025EBE7284638BD00BFFC3E00206B
:103E1000E83E0020F83E0020003F0020F43E002055
:103E2000F03E0020002834D038B50446A0F1080543
:103E300050F8043C174A1268134208D14FF050035F
:103E400083F31188BFF36F8FBFF34F8FFEE750F8F6
:103E5000081C41B14FF0500383F31188BFF36F8FFB
:103E6000BFF34F8FFEE723EA020340F8043CFFF75D
:103E700043F954F8041C084A13680B44136028469D
:103E8000FFF71CFF054A136801331360FFF7CEF9F3
:103E900038BD7047E83E0020F83E0020EC3E002090
:103EA00082B0002301930D4B1B68B3F1FF3F08D094
:103EB0004FF0500383F31188BFF36F8FBFF34F8F21
:103EC000FEE74FF0500383F31188BFF36F8FBFF30A
:103ED0004F8F019B002BFCD002B070470C000020DC
:103EE00008480068006880F308884FF0000080F3FD
:103EF000148862B661B6BFF34F8FBFF36F8F00DFD8
:103F000000BF000008ED00E0DFF80C00016841F49C
:103F1000700101607047000088ED00E04FF0807391
:103F200040F8043C21F0010140F8081C054B40F822
:103F30000C3C40F8202C6FF0020340F8243C44383D
:103F4000704700BFA13E0008000000000000000014
:103F5000074B19680868B0E8F04F80F30988BFF391
:103F60006F8F4FF0000080F311887047AFF300802F
:103F7000FC3600204FF0500383F31188BFF36F8F9E
:103F8000BFF34F8F0B4A136801331360012B00D02E
:103F900070474FF0E023D3F8043D13F0FF0FF7D044
:103FA0004FF0500383F31188BFF36F8FBFF34F8F30
:103FB000FEE700BF0C000020094B1B6843B94FF01F
:103FC000500383F31188BFF36F8FBFF34F8FFEE76A
:103FD000013B034A13600BB983F31188704700BF9C
:103FE0000C000020000000000000000000000000A5
:103FF000EFF30980BFF36F8F154B1A681EF0100F97
:1040000008BF20ED108A20E9F04F106009B44FF08E
:10401000500080F31188BFF34F8FBFF36F8FFFF70E
:10402000A7F94FF0000080F3118809BC19680868EF
:10403000B0E8F04F1EF0100F08BFB0EC108A80F30C
:104040000988BFF36F8F7047AFF30080AFF3008034
:10405000FC36002008B54FF0500383F31188BFF3FE
:104060006F8FBFF34F8FFFF755F828B14FF0E02364
:104070004FF08052C3F8042D002383F3118808BD4C
:104080004FF0E022002313619361054B1B68054943
:10409000A1FB03139B09013B536107231361704785
:1040A00008000020D34D62104FF0E023D3F8002D1C
:1040B0003D4B9A421CD04FF0E023D3F8002D3B4BF0
:1040C0009A421ED030B583B0394B1A78D2B20192E1
:1040D000FF221A701B78DBB28DF803309DF8033095
:1040E00003F05003334A1370334B07221A601BE06E
:1040F0004FF0500383F31188BFF36F8FBFF34F8FDF
:10410000FEE74FF0500383F31188BFF36F8FBFF3C7
:104110004F8FFEE7284A1368013B13609DF8033078
:104120005B00DBB28DF803309DF8033013F0800F95
:10413000F0D1214B1B68032B08D04FF0500383F3C1
:104140001188BFF36F8FBFF34F8FFEE71B021A4A30
:10415000136003F4E0631360019BDBB2144A137035
:104160004FF0E024D4F8203D43F47003C4F8203D20
:10417000D4F8203D43F07043C4F8203DFFF780FFA2
:1041800000250E4B1D60FFF7BFFED4F8343F43F00F
:104190004043C4F8343FFFF7A3FEFFF7E9F8FFF709
:1041A0007FFE284603B030BD71C20F4170C20F417F
:1041B00000E400E00C7B0020087B00200C000020C5
:1041C000EFF305830F2B0ED9114A9A5C114B1B7824
:1041D0009A4208D24FF0500383F31188BFF36F8FD8
:1041E000BFF34F8FFEE74FF0E023D3F80C3D03F40D
:1041F000E063094A1268934208D94FF0500383F3F1
:104200001188BFF36F8FBFF34F8FFEE7704700BF7A
:10421000F0E300E00C7B0020087B002010B5034693
:104220000C4A0D490D48006840B10C480068034431
:10423000521A934206D8094A136010BD0748084C29
:104240000460F2E700F0C8FB0C2303604FF0FF307E
:10425000F3E700BF0000022000040000107B0020F4
:10426000980B01200120704708B500F0B5FB16231C
:1042700003604FF0FF3008BD08B54FF0FF31FFF786
:10428000F3FFFEE770B50C461646002506E0AFF3D7
:104290000080214601F8010B01350C46B542F6DBE2
:1042A000304670BD70B50C461646002504E014F883
:1042B000010BAFF300800135B542F8DB304670BD2D
:1042C0004FF0FF3070474FF400534B6000207047B1
:1042D0000120704700207047124A12F0070F1ED0CD
:1042E000D11D21F00701C1F5705313440A460E4851
:1042F0000260002141601344083B23F007030B4890
:10430000036059601960991A51601360084B196075
:10431000084B1960084B4FF000421A6070474FF489
:104320007053E4E7307B0020287B0020247B0020B2
:104330001C7B0020207B0020187B0020164B1A4697
:104340001B688342FBD3516802EB010C844509D002
:10435000416800EB010C634509D00360904219D01D
:10436000106070474068014451601046F0E710B497
:104370000A4C2468A3420BD05B681944416013685F
:104380001B680360904200D010605DF8044B7047DA
:104390000460F7E7704700BF287B0020247B0020E3
:1043A00038B50446FEF7A8FE364B1B68B3B1364B52
:1043B0001B681C424CD1002C4CD004F1080214F0B4
:1043C000070F02D022F007020832002A51D02F4BEB
:1043D0001B6893424FD32E490C6804E0FFF77CFF23
:1043E000E5E721461C466368934202D22368002B0E
:1043F000F7D1244B1B68A3423FD00D6808352368D2
:104400000B6063689B1A102B10D9A01810F0070FCF
:1044100008D04FF0500383F31188BFF36F8FBFF3C1
:104420004F8FFEE743606260FFF788FF62681749BD
:104430000B689B1A0B60174909688B4201D215491A
:104440000B60114B1B68134363600023236002E081
:10445000002500E00025FEF7E9FE15F0070F0ED05D
:104460004FF0500383F31188BFF36F8FBFF34F8F6B
:10447000FEE70025EFE70025EDE70025EBE72846FE
:1044800038BD00BF247B0020187B0020207B00204B
:10449000287B00201C7B002080B338B50446A0F1A7
:1044A000080550F8043C164A1268134208D14FF030
:1044B000500383F31188BFF36F8FBFF34F8FFEE775
:1044C00050F8081C41B14FF0500383F31188BFF33B
:1044D0006F8FBFF34F8FFEE723EA020340F8043CDF
:1044E000FEF70AFE54F8041C064A13680B441360D6
:1044F0002846FFF723FFFEF799FE38BD704700BF3F
:10450000187B0020207B002050F8043C024A1068F1
:1045100023EA0000704700BF187B002070B50546F5
:104520000C46FEF7E9FD2046FFF73AFF064678B154
:1045300075B12846FFF7E8FF0838844200D30446E7
:1045400022462946304600F074FA2846FFF7A4FFB9
:10455000FEF76CFE304670BD38B505460C46FEF7DA
:10456000CBFD05FB04F42046FFF71AFF0546034682
:1045700003E0002103F8011B1446621E002CF8D151
:10458000FEF754FE284638BD08B505490A680244BE
:104590000A6004490A6802440A60FFF701FF08BD87
:1045A00034B7002030B7002058B110B50446FFF7EB
:1045B000ABFF044A13681B1A13602046FFF76CFF19
:1045C00010BD704730B7002038B50C460C4A136850
:1045D0000B4413600B4A13680B44136058B1054633
:1045E000FFF792FF074A13681B1A136021462846FB
:1045F000FFF794FF38BD0846FFF7D2FEFAE700BF89
:1046000034B7002030B7002010B501FB00F3054C93
:1046100022681A442260044C22681A442260FFF780
:104620009BFF10BD34B7002030B700200000000011
:104630002DE9F04107460E46144615A3D3E90023A1
:10464000FBF716FE0D4680462060616010A3D3E99B
:10465000002338463146FBF70BFEA260002A01DB3F
:10466000BDE8F081084981FB0231D317C3EB217308
:104670000133B8EB030165EBE37521606560034925
:1046800001FB0322A260EBE7A12FB84400CA9A3BCA
:1046900000CA9A3B0000000070B582B00D46684623
:1046A000002400940194FEF729FF009E019A4FEA2E
:1046B000461C4CEAD26C53019B1A6CEB060C4FEA79
:1046C0004C2C4CEAD35C5B029B1846EB0C0C4FEA7B
:1046D0008C1141EA93619801C01A61EB0C018018BA
:1046E0002A4646EB0101FFF7A3FF204602B070BD4A
:1046F00008B54FF400620349D0F88C02FDF706FFBD
:10470000012008BD40B7002008B5D0F88C02FDF7A5
:10471000D3FB012008BD70B5D0F88C5295F841301C
:10472000202B01D0002070BD144692B22846FDF720
:104730007BFB06463EB995F84130202B03D0012083
:10474000FFF764FAF6E70EB92046ECE70020EAE747
:104750002DE9F8430D4614461F46D0F88C820026FA
:1047600072B6D8F83C301B685868C0F50060DFF8B6
:104770005490C9F8000062B601360120FFF746FAEE
:104780000E4B1B68D9F80020934214D1BE42E7DBE0
:10479000002008E00A49C95C29540133C3F30A0325
:1047A00006490B600130054B1B689A4201D0A042BC
:1047B000F0D3BDE8F8830020F5E700BF3CB7002048
:1047C00040B7002038B70020DFF834D0FDF7B0FE46
:1047D0000C480D490D4A002302E0D458C45004335C
:1047E000C4188C42F9D30A4A0A4C002301E0136032
:1047F0000432A242FBD300F0F5F8FBF763FE7047EA
:10480000000002200000002010010020D8F600085F
:1048100010010020980B0120FEE70000002310B5D6
:104820000446C0E90033C0E90433836081814366F4
:10483000C2818361194608225C3000F0C5F80D4B37
:1048400063620D4BA3620D4BE3620D4B23630D4B73
:1048500024629C4206D003F16802944202D0D03315
:104860009C4205D104F15800BDE8104000F0DEB8CC
:1048700010BD00BFA1520008C3520008FB5200083F
:104880002153000840BF0020024A0349034800F0BA
:104890006BB800BF1400002039520008240000202B
:1048A00041680C4B994210B5044601D000F0C4FC9D
:1048B000A168094B994202D0204600F0BDFCE16896
:1048C000064B994204D02046BDE8104000F0B4BC2D
:1048D00010BD00BF40BF0020A8BF002010C00020B6
:1048E0000C4B0D4A0D4810B504211A600022FFF749
:1048F00095FF0A4B01221C46092103F16800FFF7CE
:104900008DFF04F1D0000222BDE810401221FFF714
:1049100085BF00BF78C000208948000840BF002044
:10492000014800F084B800BF7EC00020014800F0BC
:104930007FB800BF7EC0002010B50446FFF7F0FF2F
:10494000236A1BB1BDE81040FFF7F0BF044B2362A0
:10495000044B1B68002BF5D1FFF7C2FFF2E700BF45
:10496000A148000878C000202DE9F8430746884692
:1049700014460026D4E90195B9F1010905D524684A
:10498000002CF7D13046BDE8F883AB89012B07D95D
:10499000B5F90E30013303D029463846C0470643E7
:1049A0006835E9E70FB407B5064904AB086853F862
:1049B000042B8168019300F073F803B05DF804EBF9
:1049C00004B070472000002002440346934200D107
:1049D000704703F8011BF9E7014B1868704700BFE7
:1049E0002000002070B50D4B0D4D5B1B9C10002668
:1049F000A64209D10AF0D0F80A4D0B4B5B1B9C1064
:104A00000026A64205D170BD55F8043B98470136F3
:104A1000EEE755F8043B98470136F2E7CCF600087C
:104A2000CCF60008CCF60008D4F6000870477047B2
:104A300070470A44914200F1FF3300D1704710B52E
:104A400011F8014B03F8014F9142F9D110BD936861
:104A5000013B002B10B4936008DA9469A34201DB98
:104A60000A2903D15DF8044B00F05EBC1368581CA2
:104A70001060197008465DF8044B7047F8B506469B
:104A80000F461446D518AC4201D1002007E014F8B7
:104A9000011B3A463046FFF7DAFF431CF3D1F8BD5D
:104AA0002DE9F0470D469CB014461F46064618B146
:104AB000036A0BB9FFF740FF6B6ED90705D4AB89CA
:104AC0009A0502D4A86DFFF7B2FFAB891B0701D589
:104AD0002B699BB92946304600F064FC70B16B6EBF
:104AE000DC0704D54FF0FF301CB0BDE8F087AB8980
:104AF0009805F7D4A86DFFF79BFFF3E70023099310
:104B000020238DF82930039730236A4F8DF82A30FF
:104B10004FF001082346994613F8012B0AB1252AC4
:104B2000F9D1B9EB040A0BD0534622462946304648
:104B3000FFF7A4FF013000F0A480099A52440992C3
:104B400099F80030002B00F09C8000234FF0FF32DA
:104B5000CDE9052309F10109049307938DF853303A
:104B60001A934C46534814F8011B0522FBF730FBFF
:104B7000049BD0B9D90644BF20228DF853201A07D0
:104B800044BF2B228DF8532099F800202A2A13D0F5
:104B9000079A4C4600204FF00A0C214611F8013BC1
:104BA000303B092B49D968B913E0C01B08FA00F063
:104BB00018430490A146D4E7039A111D126803918B
:104BC000002A01DB079204E0524243F002030792FD
:104BD000049323782E2B0AD163782A2B32D1039B9E
:104BE0001A1D1B68039243EAE37302340593DFF84E
:104BF000D490217803224846FBF7EAFA38B1049BA7
:104C0000A0EB09004022824013430134049314F8BE
:104C1000011B29488DF828100622FBF7D9FA002835
:104C20003ED0264818BB039B073323F00703083305
:104C30000393099B034409936CE70CFB02320C4677
:104C40000120AAE700230134059319464FF00A0C0E
:104C5000204610F8012B303A092A03D9002BC6D080
:104C60000591C4E70CFB012104460123F0E703ABE7
:104C700000932A46124B04A93046AFF30080431C30
:104C8000D7D16B6ED90705D4AB899A0502D4A86D2C
:104C9000FFF7CEFEAB895B063FF524AF099823E70B
:104CA00003AB00932A46064B04A9304600F01CF9DA
:104CB000E5E700BF8CF1000896F100080000000055
:104CC0007D4A000892F1000870B50F4E0C4631681D
:104CD000054611B900F064FC30602146284600F01A
:104CE0005FFC431C03D14FF0FF34204670BDC41C51
:104CF00024F00304A042F8D0211A284600F050FC0A
:104D00000130F2D1EFE700BF80C000202DE9F84369
:104D1000CD1C25F0030508350C2D38BF0C25002DC2
:104D2000064601DBA94204D90C2333600020BDE80C
:104D3000F883DFF8D48000F0A7FAD8F800301C46DA
:104D400044BB29463046FFF7BFFF431C044658D1F9
:104D5000D8F800402746002F43D1002C4BD02368C1
:104D60003946304604EB030900F01AFC814542D174
:104D700021686D1A29463046FFF7A6FF01303AD068
:104D800023682B442360D8F800305A6862BBC8F807
:104D900000700FE02268521B20D40B2A17D961192A
:104DA000A342256018BF5960636808BFC8F80010A7
:104DB00062514B60304600F06DFA04F10B00231D88
:104DC00020F00700C21A1CBF1B1AA350AFE762688D
:104DD000A3420CBFC8F800205A60EBE72346646882
:104DE000AEE73C467F68B6E71A465B68A342FBD154
:104DF00000235360DEE70C233360304600F04AFAAC
:104E000094E70560D6E700BF84C000202DE9F04795
:104E1000164698468A680B69DDF820909342B8BF21
:104E20001346336091F8432007460C460AB101331C
:104E300033602368990642BF3368023333602568C4
:104E400015F0060506D104F1190AE36832689B1AC9
:104E5000AB4226DC94F843302268003B18BF0123A4
:104E600092062BD404F1430241463846C84701302C
:104E70001ED02368226903F00603042B02BFE568F5
:104E80003368ED1AA3680CBF25EAE5750025934247
:104E9000C4BF9B1AED1800261A34B5421AD100205F
:104EA00008E00123524641463846C847013003D145
:104EB0004FF0FF30BDE8F0870135C6E7E1185A1C16
:104EC000302081F84300224494F8451082F84310C2
:104ED0000233C7E70123224641463846C84701301E
:104EE000E6D00136D9E700002DE9F0430D7E85B00C
:104EF000782D90460C9E07460C46994601F14302D8
:104F000007D8622D0AD8002D00F0D780582D00F068
:104F1000BC8004F1420684F842503BE0A5F16303F3
:104F2000152BF6D801A151F823F000BF854F0008DA
:104F3000994F0008134F0008134F0008134F000843
:104F4000134F0008994F0008134F0008134F000833
:104F5000134F0008134F0008A1500008C34F00086A
:104F600053500008134F0008134F0008C3500008A7
:104F7000134F0008C34F0008134F0008134F0008D9
:104F80005B50000833681A1D1B68326004F142064A
:104F900084F842300123A1E033682068191D316094
:104FA000060601D51D6803E04506FBD5B3F90050A0
:104FB000002D03DA2D236D4284F843305B480A2329
:104FC00011E021683368080653F8045B02D44906EF
:104FD00048BFADB23360237E54486F2B5CD10823A9
:104FE000002184F843106668A660002E05DB216866
:104FF0002E4321F00401216050D01646B5FBF3F199
:1050000003FB115C10F80CC006F801CDAC466345FB
:105010000D46F3D9082B0BD12368DB0708D523698C
:1050200061689942DEBF302306F8013C06F1FF3685
:10503000921B2261CDF80090434603AA21463846D0
:10504000FFF7E4FE01304ED14FF0FF3005B0BDE870
:10505000F083236843F0200323603548782584F8E3
:1050600045502368316813F0800F51F8045B03D179
:1050700013F0400F18BFADB23160D90744BF43F001
:10508000200323601DB11023AAE72848E7E723681F
:1050900023F020032360F6E70A23A1E71646B9E7C9
:1050A000336825686169181D30602E061B6801D5BC
:1050B000196002E06806FBD51980002323611646BB
:1050C000B8E733681A1D32601E68626800213046F6
:1050D000FBF77EF808B1801B6060636823610023E2
:1050E00084F84330A6E72369324641463846C8472C
:1050F0000130A9D023689B0713D4E068039B984232
:10510000B8BF1846A2E70123324641463846C84791
:10511000013099D00135E36803995B1AAB42F2DCA8
:10512000EBE7002504F11906F5E700BF9DF1000843
:10513000AEF10008B1F90C202DE9F0411607054643
:105140000C4651D44B68002B02DC0B6C002B49DD64
:10515000E66A002E46D0002312F480522F682B609E
:1051600031D0626DA389590705D56368D21A636B84
:105170000BB1236CD21A0023E66A216A2846B04795
:10518000421CB4F90C3006D129681D2946D8294A99
:10519000CA40D60742D500226260D9042269226043
:1051A00004D5421C01D12B6803B96065616B2F6087
:1051B000C1B104F14403994202D0284600F034FA08
:1051C000002363630EE0216A01232846B0470246AC
:1051D000501CC7D12B68002BC4D01D2B01D0162B1F
:1051E0001AD12F6000201EE00F69002FFAD093071C
:1051F0000E6808BF4B690F6018BF0023A6EB0708B5
:105200008B60B8F1000FEDDD216AA66A43463A468D
:105210002846B047002808DCB4F90C3043F04003BE
:10522000A3814FF0FF30BDE8F0810744A8EB0008F0
:10523000E7E700BF0100402038B50B6905460C4682
:1052400013B90025284638BD18B1036A0BB9FFF71A
:1052500073FBB4F90C30002BF3D0626ED00704D48A
:10526000990502D4A06DFFF7E2FB28462146FFF71F
:1052700061FF636EDA070546E4D4A3899B05E1D498
:10528000A06DFFF7D5FBDDE70148FFF7D0BB00BFFE
:105290007DC000200148FFF7CBBB00BF7DC00020D0
:1052A00010B50C46B1F90E1000F068F90028ABBF3C
:1052B000636DA3891B1823F48053ACBF6365A3817E
:1052C00010BD2DE9F0411F468B89DB0505460C46D4
:1052D000164605D5B1F90E100223002200F03CF964
:1052E000A389B4F90E1023F48053A38132463B46C0
:1052F0002846BDE8F04100F063B910B50C46B1F99D
:105300000E1000F029F9B4F90C30421C0BBF23F445
:10531000805343F48053A381A38118BF606510BDFF
:10532000B1F90E1000F05EB9F8B50E461446054608
:1053300018B1036A0BB9FFF7FFFAA369A360A38949
:105340001A0701D5236943B92146284600F02AF8F7
:1053500018B14FF0FF373846F8BD23682269981A14
:105360006369F6B28342374605DC21462846FFF7DB
:1053700063FF0028EDD1A368013BA36023685A1C9A
:1053800022601E706269431C9A4204D0A389DB0725
:10539000E1D50A2EDFD121462846FFF74DFF002830
:1053A000D9D0D6E738B5284B054618680C4618B151
:1053B000036A0BB9FFF7C0FAB4F90C301A0721D40D
:1053C000D80607D409222A6043F04003A3814FF096
:1053D000FF3030E0590712D5616B41B104F144034D
:1053E000994202D0284600F01FF90023636300228F
:1053F000B4F90C3062602269226023F0240343F088
:105400000803A38122693AB99A0501D5180603D584
:105410002146284600F03EF8B4F90C3013F00102A2
:105420000AD00022A26062695242A261226942B996
:1054300013F08000C8D138BD990758BF6269A260D7
:10544000F4E70020F7E700BF2000002070B50C460D
:10545000B1F90E10002996B015461E460ADAA18948
:1054600011F0800113D14FF48062002031602A6076
:1054700016B070BD6A4600F0C5F80028EFDB019950
:1054800001F47041A1F5005359425941EBE7002165
:105490004022EAE78B8973B59E0705460C4607D57F
:1054A00004F14703236023610123636102B070BDEF
:1054B00001AB6A46FFF7CAFF009E28463146FFF758
:1054C00025FCB4F90C3038B99A05EFD423F0030366
:1054D00043F00203A381E3E743F08003A381019B30
:1054E0002060C4E90406002BE0D0B4F90E10284671
:1054F00000F022F80028D9D0A38923F0030343F059
:105500000103A381D2E7884210B501EB020402D95E
:105510008442234607D8431EA14207D011F8012B2D
:1055200003F8012FF8E70244824200D110BD13F8BE
:10553000011D02F8011DF7E738B5064D00230446AA
:1055400008462B60FEF7C4FE431C02D12B6803B152
:10555000236038BD88C0002038B5074D0446084692
:10556000114600222A601A46FEF7B4FE431C02D1FF
:105570002B6803B1236038BD88C0002038B5074DC3
:1055800004460846114600222A601A46FEF77AFEB3
:10559000431C02D12B6803B1236038BD88C00020B2
:1055A00038B5064D0023044608462B60FEF736FE4C
:1055B000431C02D12B6803B1236038BD88C0002092
:1055C00038B5074D04460846114600222A601A469F
:1055D000FEF768FE431C02D12B6803B1236038BD7F
:1055E00088C0002038B5064D0023044608462B60CD
:1055F000FEF766FE431C02D12B6803B1236038BD61
:1056000088C0002038B5074D0023044608461146DF
:105610002B60FEF758FE431C02D12B6803B12360B8
:1056200038BD00BF88C0002038B50546002941D0EC
:1056300051F8043C0C1F002BB8BFE418FFF724FE00
:105640001D4A136833B9636014602846BDE83840CA
:10565000FFF720BEA34208D9206821188B4201BF62
:1056600019685B6809182160EDE71A465B680BB1A1
:10567000A342FAD911685018A0420BD12068014406
:10568000501883421160E0D118685B685360084489
:105690001060DAE702D90C232B60D6E720682118C6
:1056A0008B4204BF19685B68636004BF09182160FE
:1056B0005460CAE738BD00BF84C000202DE9F04126
:1056C000074614460D4621B9BDE8F0411146FFF7E3
:1056D0001DBB2AB9FFF7A8FF25462846BDE8F08183
:1056E00000F01AF88442064602D8B4EB500FF4D802
:1056F00021463846FFF70AFB804608B94546ECE7E5
:10570000B4422246294628BF3246FFF792F929467D
:105710003846FFF789FFF1E751F8043C181F002BCA
:10572000BCBF0B58C0187047014B1868704700BFCA
:1057300074F200082DE9F04788B0109D002D69D063
:1057400005F15009044648460E4690461F4600F0B3
:10575000D5F900285ED0002C5CD0D4F800A0BAF1B6
:10576000000F04D06427384608B0BDE8F087304603
:1057700004F0A4FF002852D0B8F1000F4AD0002F47
:1057800048D0CDE903AA07AA059205F1580393E88A
:1057900007008DE80700CDF81CA0394699E80C00F9
:1057A000304604F0DFFF074600284FD12B6D296EED
:1057B000C8209847206000284ED0304604F0A0FF53
:1057C00005F164030093079A27682B46414600F0D1
:1057D00055FA2368C7F8C400D3F8C40070B303F1C6
:1057E000700100F029FB23680746D0B995F84820DE
:1057F00083F8B820294670221846FFF71AF9326854
:10580000C0F8C02007986B6D296E9847384608B0DD
:10581000BDE8F0870B27384608B0BDE8F087C827F9
:10582000A1E78BB1D3F8C42042B1304604F068FF41
:105830002368D3F8C41000F00FFB23686A6D296E4B
:1058400018469047002323600127DBE76728D9D05B
:10585000692803D00A28F7D10A27D3E76727D1E7B9
:1058600070B5144D144988B0044650222846FFF7FD
:10587000E0F802A800F034F90DF1080CBCE80F00C4
:1058800005F1500EAEE80F006E46DCF80030CEF8A1
:105890000030304600F074F996E8030005F1640327
:1058A00083E80300702229462046FFF7C2F820460D
:1058B00008B070BD90C0002078F20008F8B103680D
:1058C00070B50446B3B11646D3F8C42092B1D3F8EC
:1058D000C0000D4604F02EFB60B12368D3F8C4006D
:1058E00040B155B13246294600F068F9003818BF7A
:1058F000012070BD4FF4967070BD0B2070BD4FF449
:10590000967070472DE9F04186B0B8B31C46ABB332
:105910000F469046064604F061FC04F10C03059026
:1059200093E803008DE8030005A894E80E0004F056
:1059300057FC0546E0B902AD284604F0F1FA95E8B7
:105940000300334686E8030005AA4146384604F0C2
:1059500057FB0546B8B9B460224606F10C01032096
:1059600004F0C0FF054670B905A804F09FFC08B11B
:1059700000F0EAF8284606B0BDE8F0810B2528467D
:1059800006B0BDE8F08100F0DFF805A804F08EFC59
:105990000028EFD0ECE700BFB8B32DE9F0430D4687
:1059A000A1B029B316461AB31F460BB30DF1100868
:1059B0000446404604F032FD98E803000DF1180952
:1059C00084E80300484604F0A1FE404604F026FDAA
:1059D000CDF8009098E803003B4684E80300324687
:1059E0002946204604F024FD30B921B0BDE8F083FB
:1059F0000B2021B0BDE8F083039000F0A5F800F083
:105A0000A3F8039821B0BDE8F0830B20704700BFD6
:105A100068B32DE9F0410D46A0B021B3164612B38C
:105A20001F4603B30446FFF77FFE0DF11008206008
:105A30004046FFF715FF0F4950224046FEF7F9FF99
:105A4000CDF800803B46324629462046FFF772FEDD
:105A500010B920B0BDE8F081039000F075F803980C
:105A600020B0BDE8F0810B2020B0BDE8F0810B2014
:105A7000704700BFC8F2000808F09EBC08F0B2BD35
:105A800008F006BD08F0FCBC10B5054C86468446FF
:105A90000FCCACE80F002368CCF80030704610BD86
:105AA00018F30008A8B10268A2B14168A1B110B40E
:105AB000C46864B1806838B1084B1A600022C3E939
:105AC0000342C3E9011001205DF8044B70472046F2
:105AD000FAE770471046704708467047700000208C
